:020000040000FA
:1000000000400020E57A0100217B0100237B0100F4
:1000100000000000000000000000000000000000E0
:10002000000000000000000000000000257B01002F
:100030000000000000000000277B0100297B010078
:100040002B7B0100994B0100298201002B7B0100D1
:100050002B7B010000000000E57B01002B7B0100F1
:10006000A1A10000AD8401009D8001002B7B010057
:100070002B7B01002B7B01002B7B01002B7B0100E4
:100080002B7B01002B7B01002B7B01002B7B0100D4
:100090002B7B01002B7B01002B7B0100DDA20000EC
:1000A000EDA200002B7B010000000000000000001A
:1000B0000000000000000000000000000000000040
:1000C00010B5064C2378002B07D1054B002B02D02E
:1000D000044800E000BF0123237010BD1001002080
:1000E0000000000070B00300044B10B5002B03D0DB
:1000F0000349044800E000BF10BDC04600000000F6
:100100001401002070B00300164B002B00D1144BDB
:100110009D46402292029A1A924600218B460F4633
:100120001348144A121A25F0AEFE0F4B002B00D0D4
:1001300098470E4B002B00D0984700200021040068
:100140000D000D48002802D00C4800E000BF1DF053
:1001500085FF2000290025F0ECFB1DF0CBFEC046FA
:100160000000080000400020000000000000000027
:10017000080100208C2F002000000000000000007B
:10018000F0B5486887B00F0001F0C8FD041E02DA20
:10019000002006F01BFDBB68164A01939D186B1EDC
:1001A0009D41010002A824F06CFA049E2200002167
:1001B000300025F068FE3868EDB2C3070AD433007A
:1001C0002200290022F009FB02A90B480BF0C0FD18
:1001D00007B0F0BD43102000042C00D904200749CB
:1001E000019F00228F4200D0221AB218290021F06C
:1001F00063FFE9E75AECFFFFE8870200A61300005F
:10020000F0B50C0087B0012203A9606801F040FF3F
:10021000A3681349039A8B420DD1012604997642B3
:100220004C1E01911419049900200D00002D05D1D8
:1002300022F021FB0DE014000126F4E7094F013DF7
:10024000B84208D908481B18581E8341D8B222F07A
:10025000B5FA07B0F0BD277800023843A419E5E7E6
:10026000A6130000FFFF3F005AECFFFF70B54600E9
:100270007508041C291C281C19F096FB00280BD1BA
:100280001649281C18F01AFC002808D014491548F3
:1002900023F0F5FA00F0CCFD134806F097FC002C93
:1002A00011DA002E12D0FF23DB05E3189C22D205C1
:1002B00093420BD910F068FC211C0500043023F098
:1002C0006EFC280070BDE30DDB05EFE7201C19F084
:1002D00081FB012540000543F3E7C046FFFF7F7F18
:1002E000FEF002005CB0020017F10200F0B50C0055
:1002F000002585B0110020001E00009502232A0071
:1003000015F03AFC0120AC422BD0844231D1306848
:10031000204226D103230340AB4203D11C4A01688B
:1003200091421ED01B4A0240062A06D0002B0DD156
:100330000268194B92699A4208D103A90CF096F908
:1003400000231A00039903F0D3FD0AE003230200FF
:100350001A40022A07D1FF22D20580189843FFF7DE
:1003600085FF05B0F0BD01F0D9FC01234000184322
:10037000F7E703A930680CF079F904007068039F6F
:1003800001F0CCFC2B00020039002000DBE7C04666
:10039000E0600200070080FF09CC0000F8B51F00F4
:1003A0000B4B150059180139097818F0ADF90026E2
:1003B0000400B74204D00130032118F0A5F906006B
:1003C000281E01D025F0B3FD0334A4192018F8BD70
:1003D000EEF00200F0B58DB00A9214AA147815AAB6
:1003E000127806000F000792DA0742D55D1000234D
:1003F000002D01DA2D236D420693139A079B129963
:100400002020FFF7CBFF3B680590834204D21EF00B
:100410002DFE059B30603B6000213768059BFB1873
:100420005A1E11708D4240D00A3C099208920B94DA
:100430001299280018F0EEF90B003033092901D980
:100440000B9B5B18089A541E2370079B002B48D007
:1004500000282DD0A7422BD2099B1B1B032B05D1B3
:10046000079B013C2370A74222D2099405000894FF
:10047000DEE79A0712D1244A196891420ED1079AF1
:1004800002940392139A39000192129A00920A9AE6
:1004900022F06AF9040020000DB0F0BD002332689C
:1004A00013700A9A34681360F5E79C1E302323709A
:1004B000139B002B05D0180025F039FD201A874228
:1004C0001FD3069B002B04D0BC4202D9069B013CE3
:1004D00023703368059A9B181B1B0A9A013B136013
:1004E000D9E7A742E4D20028C0D1E1E7C2540133E2
:1004F000139AD25C002AF9D1069B0400002BE5D1A7
:10050000E7E70023F4E7C046E06002001300144A66
:1005100010B50400934204D10122200006F05EFBD6
:1005200010BD104A934201D10322F6E70020072CA8
:10053000F6D10D4A1A40062A0ED09A07F0D11A6851
:100540000A4CA24208D00A4CA24205D0094CA24251
:1005500002D0094CA242E3D10A0007201900DDE7CE
:10056000C0990200C8990200070080FF8C85020034
:10057000E8870200D465020040840200F8B5060056
:1005800025F0D5FC05000F4C2078002800D1F8BDDF
:10059000200025F0CCFC070085420BD82A00210062
:1005A000300025F045FC002804D1635D002B04D009
:1005B0002F2B04D00137E419E6E70220E7E70120FA
:1005C000E5E7C046F57E0300F7B50F000025104CA7
:1005D000009001922078002811D0200025F0A7FC7F
:1005E000060087420CD13A002100009825F020FC3B
:1005F000002805D1074BAD00EB58002B04D1FEBD00
:100600000136A4190135E5E7019A02201360F6E7E7
:10061000F57E030020D302000122010003001140F7
:10062000100000290CD10800990709D11B68054961
:1006300010008B4204D00448181A43425841C0B2FB
:100640007047C046E0600200D09902000023FA2102
:10065000094A89001360094A1370094A1360094A5C
:100660001160094A1370094A111D0832D36701222B
:10067000CB67074B1A707047300100207C2D00209B
:100680002C010020040000207D2D0020282E0020B9
:100690007E2D002010B5084B084A1978002907D193
:1006A000916C002902D0FFF7D1FF10BD30BFF4E7F5
:1006B00000221A70F9E7C0467E2D0020282E002067
:1006C000837F0248002B00D101487047C89902007F
:1006D000C09902000023A022E02110B583770C4BC3
:1006E000D2050902D1500B480CF07CFE0A480CF0F0
:1006F00079FE0A480CF076FE09480CF073FE0948B2
:100700000CF070FE08480CF06DFE084810BDC046A5
:100710000C0500009C900200A4900200B49002001E
:10072000BC900200CC90020044900200FC7E0200CB
:10073000F8B5164C2368002B07D1482025F01DFB87
:100740000500134916F096FA25601248124902680E
:100750000B68D21A0123312A04D9623393429B4198
:100760005B420233002201260C4D2E702F78032F9E
:10077000FCD101329342F8D1036820680B6024F069
:10078000CAFD430001201843F8BDC04634010020D3
:100790001C610200242E0020380100207F2D002043
:1007A00030B50D4C87B02378012B13D10B4B0222AF
:1007B0001D680621002302A824F006FA082204A9D5
:1007C000684625F044FB039B029A280016F0CEF9F8
:1007D0000223237007B030BD7F2D0020340100209C
:1007E000A02010B51049C0054B7F5A1C002B09D121
:1007F0004C8C0E4BA3430E4C03510E4B4A775200C8
:10080000D05A0FE010335B00CB185C88A123DB00CB
:10081000C450092AF1D1012009F046FDFFF7C0FFBD
:100820000120404210BDC04608000020F01F00001B
:100830000C050000B0EB020073B5041E09D11A4D7F
:100840002B78002B2CD0194919481EF0BDF92C70BB
:1008500073BD184D2B1DDE6F01F078F9164B21008A
:10086000984214D0154B2340062B05D0A30712D174
:10087000134B22689A420ED101A920000BF0F6FE1C
:10088000019B012B0CD1007820F0DAFF0100300031
:100890001EF09AF9DCE70B490B4822F0F0FFA86440
:1008A000FFF7D4FED4E7C0467D2D00204882020029
:1008B00008000020282E0020A8820200070080FFE8
:1008C0008C8502009CF1020088B10200F7B5A123DB
:1008D000A021214AC905DB00CA500123C27F0D3285
:1008E00093401E4A8B50C37F01920133DBB2032B2E
:1008F0002FD0C37702000300002122333632198043
:1009000002339342FBD10424C17F154F4D000522D1
:10091000EB5D7E195343134A7678D3189B19012651
:10092000A640B44662461B7901345B00C3185E8C56
:10093000063516435E840D2CE9D101220D318A4023
:10094000A023A121DB05C9005A50828E01995A507B
:10095000F7BD0023CDE7C046F01F00000C050000E6
:1009600030F102000800002070B5394B8CB01A78C5
:10097000022A07D1A0223749D2008A58012A07D07B
:1009800003221A70344DAB7F002B03D1FFF708FF11
:100990000CB070BD2800FFF799FF304A304913684A
:1009A0000968063313608B4207D300242D4B146073
:1009B0001B78012B0FD0022B45D000232A8C6B779C
:1009C000FF33FF331A42E1D0E1222749D200012050
:1009D00009F036FCDCE7254E331DDB6F002B04D01D
:1009E00033000833DB6F002B02D1FFF72FFEE4E763
:1009F00004F084FA684600F0F5F900280CD11C4B8D
:100A0000186805F0EDFC040000F00AFA04F080FA22
:100A10002000FFF711FFD0E704F07AFA019B154997
:100A2000186800F0CFFE0028F2D1019801F08EF88E
:100A3000114B984203D1114911481EF097FD019BBB
:100A40000024B364E4E70F4928001EF0BDF8CCE7AA
:100A50007F2D002000700040080000202C010020A5
:100A6000040000207C2D0020E1070000282E00203B
:100A700030010020D4B002006CAF0200D6F10200B9
:100A80008066020048820200F0B5002485B0154D52
:100A900002930AAB1B782E1D0700083508002100C1
:100AA00001920393F467EC6705F060FC0E4B019A2A
:100AB00018600E4BF7671A60029A0D4BE8671A70C0
:100AC0000C4B1C7005F08CFCFFF7B6FE01220A4BA4
:100AD0001C600A4B1A70039BA34201D0FFF7DAFD9A
:100AE00005B0F0BD282E00203001002004000020B9
:100AF0007D2D00207E2D00202C0100207C2D00204B
:100B0000F0B50024384B8FB01D1D0833DC67374B20
:100B1000EC6709AD80C9013801950093052315F0F4
:100B20005BF86B68099C049307942B7B2E7A0593E2
:100B30002B7C20000393FFF76FFD2D4D002806D17D
:100B400003232340022B09D12C40062C06D007ABEF
:100B50000022012127480BF07BF9079007980540F8
:100B6000062D05D0830730D1224B02689A422CD142
:100B700008A90BF07BFD089B002B23D0012B0DD186
:100B8000002E0BD1039B002B08D1007820F058FEDB
:100B90000790079938001EF017F813E007980AF03D
:100BA00017F9079009AB1B7C002B03D0079814F0B2
:100BB0005FF90790059B049A00930799330038006A
:100BC000FFF762FF0C480FB0F0BD00F0BFFF0B4B0A
:100BD0009842E7D1002E02D1039B002BD9D007A960
:100BE000012001F0C9FADCE7282E0020C8610200CC
:100BF000070080FF8C850200FC7E0200A8820200B4
:100C000070B51B4B8AB005AD40C901380093019502
:100C1000052314F0E1FF059C20000494FFF7FCFC81
:100C2000002807D103232340022B0AD1114B1C407B
:100C3000062C06D004AB002201210F480BF008F966
:100C4000049003A904980BF011FD2A7C2B7B0399D7
:100C50000092059A0AF0A6F82B7A01000093300062
:100C600000236A68FFF710FF04480AB070BDC04651
:100C7000F0610200070080FF8C850200FC7E02000C
:100C80000022074B10B51A70064B02321A70064B41
:100C9000064A1B68063B1360FFF7FCFC10BDC0460C
:100CA0007E2D00207C2D0020040000202C0100203F
:100CB00010B5FFF7E5FF014810BDC046FC7E0200FD
:100CC00010B5042901D8042A02D9094805F07EFF8D
:100CD000092B01D90748F9E70524614341188A180F
:100CE000137101229A40038C1343038410BDC04644
:100CF000A9F10200BDF10200F8B548680C000D68CA
:100D000001F00CF80600A06801F008F80700E068A0
:100D100001F004F83A00030031002800FFF7D0FF8B
:100D20000048F8BDFC7E020010B5042901D8042A51
:100D300002D9044805F04AFF05235943401880189A
:100D4000007910BDA9F1020070B5104C050021001A
:100D50000F480CF05DFB21000E480CF059FB210000
:100D60000D480CF055FB21000C480CF051FB210004
:100D70000B480CF04DFB21000A480CF049FB1DF01C
:100D8000A9FF01230848AB7770BDC046E48B020081
:100D90009C900200A4900200B4900200BC9002005B
:100DA000CC90020044900200FC7E0200030010B5CB
:100DB0000548002B03D122F055FD00F039F80968F1
:100DC00022F056FDF9E7C0464CB1020010B50348C9
:100DD000096800F0F7FE024810BDC04680660200B8
:100DE000FC7E0200C4600561466187614146C161C5
:100DF0004946016251464162594681626946C16273
:100E00007146816000490847110E00000020C0466D
:100E1000024B9A680260986000207047282E0020DC
:100E2000024B9A6812689A607047C046282E0020CC
:100E30000E4A9368002B01D120F03DFA19685860E2
:100E40009160181CC468056946698769C16988464C
:100E5000016A8946416A8A46816A8B46C16A8D4623
:100E600081688E4601207047FEE7C046282E00208C
:100E700010B50400034B0360403023F087FE2000D0
:100E800010BDC0464863020010B50F4C200024F08E
:100E900089FC002808D0200024F056FC0B4B1B686E
:100EA000984202D10AF04EFB10BD3F21084A138838
:100EB00001330B40074909888B42F5D01188064C55
:100EC00013806054F0E7C0463C0100207C2F0020D6
:100ED000742D0020762D0020802D0020002210B5DA
:100EE000044B05491A80054B05481A8024F05FFC25
:100EF00010BDC046742D0020890E0000762D002004
:100F00003C010020034B1888034B1B88C01A431E6A
:100F100098417047762D0020742D0020084A094B17
:100F200010881988884201D130BFF9E71388064933
:100F3000C85C3F21138801330B4013807047C046C3
:100F4000762D0020742D0020802D002070B5040027
:100F50004518AC4205D02178024824F0F9FB013451
:100F6000F7E770BD3C01002070B504004518AC42A5
:100F70000DD02378064E0A2B03D10D21300024F02A
:100F8000E7FB2178300024F0E3FB0134EFE770BD8C
:100F90003C01002070B504000825002C08D0210079
:100FA000082C00D929000348641AFFF7CFFFF4E7A3
:100FB00070BDC04605F2020070B5050004000826A9
:100FC000002C08D02100082C00D931000448641AF4
:100FD000FFF7BCFFF4E72800FFF7DCFF70BDC04659
:100FE000FCF1020010B5010001481DF049FE10BDE2
:100FF00008000020142313B5064C00931922182171
:10100000200015F021FF044A0449200024F0AEFE20
:1010100013BDC0463C01002000000020710E0000FE
:10102000F8B5124A0E00124B124990421AD0C46809
:101030008C4203D0012430602000F8BD406B0028B2
:1010400012D004689C42F0D105000024476808359E
:10105000BF00EF19BD42EFD2310001CDFFF7E0FF35
:101060002418F7E70024E7E70400E5E7C47402006A
:10107000D465020069110000F7B505000C00AB68EB
:10108000002B0AD0344AE168914206D0E358002B85
:1010900003D00422EB681A60F7BDA06B002820D0B3
:1010A0006B680430D90006230022194303F0C8F806
:1010B000002816D0297C4268EB682868002904D0F3
:1010C0000100002005F07AF8E6E7002807D0224961
:1010D000E5688D4203D021498C4200D0006921008F
:1010E000F0E72B68002B16D1646B002CD4D01C4B7E
:1010F00022681A4F9A420BD126006368194A0836B3
:101100009B189B00F3180193019B34689E4216D3F1
:10111000BC42B4D1C0E72A7C002AE5D10E4AE1687E
:101120009142E1D00D4A9442DED01869EA686968BC
:1011300005F09EF8EB681B68002BD5D0ACE7BC42ED
:1011400001D10436E0E721002800FFF795FFEB68A6
:101150001B68002BF5D09FE769110000C4740200E2
:10116000D4650200FFFFFF3FF0B58FB00E0005A968
:10117000019202930700FFF753FF041DA400200013
:101180001DF074FF0500002180C01EF0A2FB2200AC
:101190002800103A1030002124F075FE012E05D1F0
:1011A000029B1B680393042B00D189E007AC082243
:1011B0000021200024F067FEF222002309A8FF325C
:1011C0004260E63AFF3A39008260C46003740993D2
:1011D000FFF752FF079804282FD10598029BC46897
:1011E000019A3100A0472861280000F0AFFCB84206
:1011F00066D1EA220023FF32390009A80893079339
:101200000B9309950A92FFF737FF079B002B57D0E6
:101210000198304336D107AA01001EF09AFD040060
:10122000294B9C424CD020001DF079FF2749020039
:10123000274812F0EFFCFFF7FBFD0028D4D0019AFD
:10124000324306D106AB0121069704F099FF050051
:10125000CAE7019B5D00AD190135AD0028001DF006
:1012600005FF2A1F0390029980C024F0F0FD711C35
:10127000039B019A206804F083FF050003981DF08A
:1012800024FFB1E7019B5C00A4190234A4002000F4
:101290001DF0ECFE22000700079B029903600393F8
:1012A000089B083A4360083024F0D1FD3A000199C8
:1012B00030001EF04EFD040038001DF006FFAFE7C1
:1012C00028000FB0F0BDC046FC7E02005FF20200B5
:1012D00088B10200F0B5146889B01700002C0ED157
:1012E000436803AD82686960596B0392AC60EF603C
:1012F0002C74002905D111492800FFF7BDFE09B063
:10130000F0BD0F4B0A689A4210D14B6808310E00AD
:101310000193019B9C42EED0A300F1582800FFF7F7
:10132000ABFE3B68002BEAD10134F2E72800FFF75F
:10133000A3FE3B68002BE2D1DDE7C046C474020087
:10134000D465020010B54A6801491EF00FF910BDBE
:101350005CF30200F0B58BB005000E001400002114
:101360000822684624F08FFD0021102206A824F0F0
:101370008AFD202307936B46059508932968E0238F
:10138000002C02D0042C10D1E623FF3305A80693CD
:10139000FFF772FE0221009F042F0ED122003100C0
:1013A000286900F043FE0BB0F0BDFC2305A85B00EC
:1013B0000693FFF761FE0321EDE7381EF3D002AB81
:1013C000002202950396049404F0DAFE042CEAD07D
:1013D0000048E8E7FC7E0200F0B5204B8BB08200AD
:1013E000D35803AF0C0008220021060038000193F7
:1013F00024F049FD019B05AD6B601423AB60002315
:10140000280021680594EF602B74FFF735FE0398E0
:10141000042805D12169300004F040FE0BB0F0BD76
:1014200000280AD021001EF08CFC022EF6D100F01C
:10143000A1FC440001202043F0E7022E01D000204F
:10144000ECE7E2232168FF3328006B60FFF714FE0E
:101450003B68002BF3D16400ECE7C046D86402007F
:10146000F0B55642564103238BB00C000190002189
:1014700017007642082203A81E4024F004FD08232A
:10148000079303AB0893002305ADF736FF362168B9
:1014900028002B7405940696FFF7EEFD039B002BA6
:1014A00009D1002F07D1F733FF33216828006B6083
:1014B000AF60FFF7E1FD039804281AD1206900F01E
:1014C00045FB154BC2689A4211D1002F07D0236803
:1014D00058681EF097F8010001981DF086FF8022E1
:1014E0003A432169019800F049FB0BB0F0BD3A0086
:1014F000F7E7002805D021001EF023FC00220100A0
:10150000F0E720001DF00BFE2300020003490198C4
:101510001EF02CF8E9E7C046D93A01000EF20200AD
:1015200070B504000D000B491DF05FFF69680022D3
:10153000200000F023FB084920001DF056FFA96899
:101540000022200000F01AFB044920001DF04DFF8E
:1015500070BDC04617F3020020F3020067F30200DB
:1015600010B5C468002C06D142680449044812F042
:1015700051FBFFF75DFCA04710BDC04623F30200FE
:1015800088B10200F0B5154B89B016008200D5581D
:101590000C000C2200210700684624F074FC18237C
:1015A00003A84560836000256B462168C3600394EF
:1015B0000574FFF761FD009B042B06D13200216901
:1015C000380005F00BFB09B0F0BD181EFBD06A46D1
:1015D0002900012002961EF0BCFBF4E750630200D4
:1015E000F0B51700EE228DB004000393002307A886
:1015F00052004260CD3A05ADFF3A0E00216882608C
:10160000C560037405936B600794FFF735FD05987B
:10161000002809D120001DF082FD0C4902000C4871
:1016200012F0F8FAFFF704FC039B042806D13A00F5
:101630003100206904F0A4FD0DB0F0BD009332002C
:101640003B00696821F0A4F9F6E7C04643F20200C6
:1016500088B10200F0B50D0085B001A907001600A1
:10166000280002AA1DF0ABFD0023019902989942BF
:101670002CD13C201DF00CFD2A4B019A03602A4B13
:1016800004008360294B4760C360294B0361294BE9
:101690004361294B8361294BC361294B0362294B69
:1016A0004362294BC362002A06D0029B1968096B6A
:1016B0000163012A18D94563A66303A92000FFF737
:1016C000AFFC012813D9214805F044FC9A00825848
:1016D000D468002C06D152681D491E4812F09AFAAF
:1016E000FFF7A6FB0133C2E71B684363E4E7A36B84
:1016F0000022181D184902F0A3FD051E0ED003227A
:1017000043681A400AD11968144B4968994205D1B7
:10171000031D012112481DF064FB6860200005B024
:10172000F0BDC0469C640200611400006911000015
:10173000E1150000D91300008515000055ED0100EA
:1017400055130000D5EE01008BEE0100E9F2020016
:10175000C0F2020088B102008E0F000045020000B6
:101760002464020037B50D001C0000231100009313
:1017700001220333280014F0FFF9012D04D0032DBA
:1017800006D0074805F0E6FB206800F0DFF93EBD13
:1017900020680AF035FBA2686168FFF75BFFF6E797
:1017A00040F302001FB5064B0A0001934B680293F9
:1017B0008B68010001A8039304F08CFD05B000BD07
:1017C00060640200F8B50E0003271349134AB042C3
:1017D0001CD003003B401BD104688C421AD1406BE3
:1017E000002814D003689342F1D1050044680C4BE3
:1017F0000835E418A4002C192868A542E5D2310068
:10180000FFF7E0FF002802D10435F5E70120F8BD1D
:101810000020FCE71800FAE79C640200D46502008F
:10182000FFFFFF3FF0B585B00500019108008B0771
:1018300017D10B68134A93420BD10123029301ABDA
:1018400003930024029E039FA6420DD10E4805B0CB
:10185000F0BD0E4A934204D103AA02A91DF0AFFCC9
:10186000EFE70B4805F076FBA300F958094B9942C6
:1018700006D02800FFF7A6FF002801D10134E3E7D6
:101880000548E4E79C640200C0990200D4650200A8
:1018900087F20200C4740200C899020010B58307E1
:1018A00003D1054B02689A4202D0044805F052FB6E
:1018B000FFF7B8FF10BDC0469C64020020F2020092
:1018C000F7B505002C200E00170001931DF0E0FB7A
:1018D0000400057086608781072D01D0012D0FD18E
:1018E000337872780A3B1B021343E381019B20206B
:1018F0006375042363841DF0B9FBA0622000FEBD64
:10190000014B5B5DF1E7C04669F30200F0B58BB0B7
:101910000600080011001A0010AB1F78314B05AD0E
:1019200001950093052314F057F9912000011DF053
:101930009DFB2D4B04A91860059B476043706B68A5
:101940002A4F0370AB6804008370EB68C3702B7C74
:1019500030003B600AF08AFE0025254B03900C20E6
:101960001D601DF083FB234B0600036012F03AF864
:10197000B06012F037F8204B204A1860204B11005D
:101980001D70204B70601D701F4B30001D602B00C0
:1019900011F0FCFE2000049A03991EF055FC200073
:1019A00006F0D8FB0400A84207D111F0F5FD0E4B5C
:1019B0001C60164B186805F009F90122144B1A70C7
:1019C00012F00AF80028FBD1124B943318603B68E0
:1019D000002B04D00C4B104819681CF063FB07481F
:1019E0000BB0F0BD2C650200BC2E0020EC2A0020BC
:1019F000A0010020786502009C010020FC7E02000E
:101A0000C22D0020C02D0020A40100204400002091
:101A1000C12D0020282E002070F3020000220D4965
:101A200010B50B78DBB2934210D10B4A1478002C1E
:101A300002D001240C701370084B1B78002B07D0C8
:101A4000074A136820331360064B1A68100010BD54
:101A50008268FBE7C02D0020C12D0020C22D002090
:101A6000A00100209C01002073B501A90AF0FEFD31
:101A7000019B06001748502B17D8802040001DF00E
:101A8000F5FA154C05002300943318600023019AE1
:101A90009A420CD15B232800AB540DF0D3FC2B00F1
:101AA000002808D1943420600C4805F08FF8F15CD0
:101AB000E9540133ECE75A1B0133591E09789B297D
:101AC000F9D12900064820F0E8F800239434236077
:101AD00076BDC0467FF30200282E00208DF3020061
:101AE0008C850200D2235B005843134AF0B513687B
:101AF000000C834206D9114C23680133236013681C
:101B0000203B13601F23050001270D4E9D431468E1
:101B1000A5420BD803401A1D202A00D92022094CC7
:101B20002468934204D3084B1860F0BD3770EEE789
:101B3000E51829710133F4E7A0010020A401002079
:101B4000C22D00209C010020A8010020074BC207E5
:101B50000AD4074A074B0240062A05D00322064B47
:101B60000240022A00D0036818007047E0600200BB
:101B7000070080FF8C850200289E020070B50D00D2
:101B80000400160010F0FCF92800FFF7DFFF83685F
:101B9000002B04D0320029002000984770BD426815
:101BA000024920001DF0E2FCF8E7C046E7F402001D
:101BB00010B50A0001000248FFF7E0FF10BDC04663
:101BC00080660200F7B5050008000E0021F05BFEFC
:101BD000002810D001AA6946300012F0BBF8009B23
:101BE000002B08D0174928001DF0FFFB009CE71EC2
:101BF000A400002F09DA310028000222FFF7BEFFFF
:101C0000280011491DF0F1FBF7BD019B28001A19AE
:101C100011000C3A08390B6812680C491DF0A6FC3B
:101C2000019B1B19043B1A68002A06D106492800AB
:101C30001DF0DBFB033F0C3CDBE7054928001DF0F2
:101C400095FCF7E7A5F402004DF70200C9F4020085
:101C5000DEF4020010B50400FFF778FF054B0069C1
:101C6000984203D0431E9841C0B210BD20001DF021
:101C70005EF9FAE7E115000070B505000C000120DF
:101C80008D4203D0214B9D4201D1002070BD99426D
:101C9000FBD001231D4204D01942F6D12B000D00C8
:101CA0001C002A001A4B1A40062A05D0AA0711D197
:101CB000184A296891420DD12340062B05D0A3076D
:101CC000E3D1144B22689A42DFD1210028000AF0A8
:101CD0007DFCDBE72340062BD7D0A30703D10D4BB8
:101CE00022689A42D1D02800FFF730FF8369002B89
:101CF000CBD0220029001B2098470028C5D0064BD6
:101D0000C01A43425841C0B2C0E7C046FC7E020040
:101D1000070080FF8C850200C8990200104B10B5A7
:101D2000984219D00F4A0123904217D0184201D08F
:101D3000184110BD830706D10B4B02689A4202D1AD
:101D40000EF086FFF5E71DF0EAF9084902000848A1
:101D500011F060FFFFF76CF80020EAE71800E8E7F1
:101D6000C0990200C8990200E06002006CF4020011
:101D700088B1020010B5C30705D4830706D1054B0F
:101D800002689A4202D120F098FD10BDFFF7C6FF0D
:101D9000FBE7C046E06002000F4B70B50D00012468
:101DA000984204D100230B602300180070BD0B4B38
:101DB000984201D10C60F7E70300234002D04010A5
:101DC0002860F1E78207F0D1054A01689142ECD121
:101DD0000EF03EFFF4E7C046C0990200C899020029
:101DE000E0600200184B10B5984228D0174B98427B
:101DF00027D0C30703D5401017F00CFE10BD0323F6
:101E0000184206D1124A0168914202D120F05EFDCB
:101E1000F4E702001A40022A08D10E4A0240062ABC
:101E200004D0FF22D20580189843E7E71DF077F928
:101E300009490200094811F0EDFEFEF7F9FF002004
:101E4000DCE7FE208005D9E7C0990200C8990200AE
:101E5000E0600200070080FF52F4020088B1020037
:101E600010B583070CD103680A4CA34202D11DF0C0
:101E7000A6F910BD084CA34202D11FF0BFFDF8E740
:101E80001DF04DF905490200054811F0C3FEFEF7AB
:101E9000CFFFC046D46502004084020002F4020075
:101EA00088B1020013B50C0001A9FFF7D9FF019B0F
:101EB000A34206D022000349034811F0ABFEFEF70F
:101EC000B7FF13BD25F4020000B20200F7B505000C
:101ED0000C0017001E00D3070ED557100197019B69
:101EE000002B1FDA1B190193002E1DD0002B15DAD1
:101EF000002301930198FEBD01A91000FFF74CFFDC
:101F00000028ECD138006C681DF009F922000300AC
:101F10000B490C4811F07EFEFEF78AFFA342E9D977
:101F20000194E7E7002EF9D1019B002B01DBA342CE
:101F3000E0D36A680449054811F06CFEECE7C0463E
:101F4000C8F3020088B10200ECF302007CAE02008C
:101F500010B50400830710D10D4B02689A420CD1D2
:101F60000C4B0340062B06D1C0081DF046FB430076
:101F70000120184310BD8068F9E72000FFF7E6FD57
:101F80004369181EF6D0210001209847F2E7C046A9
:101F9000E8870200070080FF164B70B504000020A0
:101FA0009C4203D0144DAC4201D1012070BD134BB3
:101FB00000209C42FAD001262640864203D06010C1
:101FC000431E98410DE02000FFF7C0FD4369002B40
:101FD00009D0210030009847002804D0401B43421C
:101FE0005841C0B2E2E72000FFF7B2FF0028DCD082
:101FF0000138E5E7C0990200C8990200FC7E0200A2
:1020000010B50400FFF7A4FF002809D120001DF03F
:1020100086F804490200044811F0FCFDFEF708FFB1
:1020200010BDC04684F4020088B1020070B50400FF
:102030000D001600FFF78AFD036A002B05D0320061
:10204000290020009847002818D10D4D2000002EAF
:1020500008D11DF064F802000A49280011F0DAFDE9
:10206000FEF7E6FE042E04D11DF059F806490200E1
:10207000F3E71DF054F805490200EEE770BDC046D5
:1020800088B10200ECF4020017F5020038F50200F6
:1020900010B51DF05BF8002802D1024804F05AFF89
:1020A00010BDC046A3F30200044B88600B60044BD4
:1020B00008004B600023CB607047C046489902007F
:1020C0007FF1010070B50E001049040000251DF0DD
:1020D0008CF97368AB420AD8012B03D10C4920005C
:1020E0001DF083F90B4920001DF07FF970BD002D14
:1020F00003D0094920001DF078F9AB00F318012244
:1021000099682000FFF73AFD0135E2E7CD80030032
:102110002D810300A3F4020020F3020070B50D002E
:1021200001281ED0002803D0022807D0002004E098
:102130004B680E48002B00D10D4870BD00260D4C99
:102140006B689E4203D3012064002043F5E7B3008F
:10215000EB189968022003F0A1FF40102418013603
:10216000EEE74B685B001843E7E7C046C8990200FA
:10217000C0990200CC65020070B506000D000B4846
:10218000002E0DD0B41CA40020001CF06FFF084BE3
:1021900046600360002D03D00023083CA34200D119
:1021A00070BDE958C21891600433F7E7CC650200AE
:1021B000D4650200F0B5070085B00E0014001D289C
:1021C00003D90025280005B0F0BD01238340324D1E
:1021D0001D4044D1314A13421FD1F82292051342C7
:1021E000EFD02000FFF7B2FC2D4B426A9A4205D097
:1021F00020002C491CF0BDFE041E0CD02300310031
:102200006268083300920831726838000FF090FB62
:10221000254D0028D6D1254DD4E72000FFF796FCA8
:102220002049FFF7CFFA0028CBD0736862682900F5
:102230009818FFF7A1FF07003100736808379A006C
:1022400005000831380023F002FE21007068636841
:10225000800038189A00083123F0F9FDB2E703A98D
:102260001000FFF799FD0025A842ABD00398104D50
:102270000028A7DD736800215843FFF77DFF0500A4
:102280002B003000083300930830039B7268042150
:1022900020F0BCFB96E7C046800010002000040040
:1022A000A9200000D4650200C8990200C09902006C
:1022B000CC65020030B5040085B0042A2DD1032579
:1022C00040680D401FD1164B0A689A421BD101AAE3
:1022D0000FF0B2FA002802D1124804F069FE019B07
:1022E00002982900C01AFFF747FF050021006B681C
:1022F00008319A00019B08309C00091923F0A7FDC2
:10230000280005B030BD0A00002301002068FFF757
:10231000DDFD023080000559F2E70025F0E7C046F8
:102320008866020065F50200F0B50C00110000227D
:1023300085B01E0000920123200013F01DFC184DF3
:10234000002C1ED03568AB0703D1164B2A689A4281
:1023500017D010201CF08AFE00210400306804F021
:1023600005F8002504260390039804F061F8071E81
:102370000AD128002100FFF7FFFE050020001CF015
:10238000A4FE280005B0F0BDAE4205D8F100200043
:102390001CF08AFE04007600AB001F510135E3E714
:1023A000CC650200D4650200F7B5CC1CA400070080
:1023B00020000E0001921CF059FE22000500054B82
:1023C0004760866003600C3A01990C3023F03FFDB2
:1023D0002800FEBD4466020070B5050000291CDB24
:1023E000032905D80800002416F07AF91818060603
:1023F0000123023999430C00FE26B521090231431D
:1024000028001CF029FF002C04D005492800214396
:102410001CF022FFAE61EC6170BD0024F226ECE7F7
:1024200080B00000F0B587B0039205910D9A039932
:102430000500521A0CA9097820200C00844339D0D9
:1024400030293BD00CA902910121802401911C402C
:1024500036D0D40FA4186410171B002C37DD2600CB
:10246000019B0493B34200DD04966B68049A0299C1
:1024700028689847049BF61A002EF1DC039B002B7A
:1024800006D01A0005996B6828689847039BE418E2
:10249000002F0CDDE419019EBE4200DD3E0032003B
:1024A000029928686B689847BF1B002FF3DC200057
:1024B00007B0F0BD074902911021C6E70649FAE7C7
:1024C00001271F4001D11400C7E71700D6E70024F9
:1024D000D4E7C046A8F50200B9F50200F0B593B004
:1024E0001C0018AB20CB05901B780F00160007933B
:1024F000CB070BD48B0703D1854B0A689A4205D0D2
:102500003800FFF70BFC01274000074381231D42E1
:1025100009D1079B302B06D11A9B1B9A934200DAF4
:102520001A9200231B93380020F067F90AAA1300BF
:10253000002806DBAB070FD52B231370123B04AA30
:102540009B18E1B2EA0615D5022E0CD130221A7082
:102550004A1C5A7002330DE013006A07F1D520229D
:102560001A701923EBE7082E3BD130221A70AA0506
:1025700034D4013300220AA81A701B1A2C200693A7
:10258000AB06DB1718400EAB0B9310230C931B9B71
:102590000D92012B01DD40231D43402404ABDA756D
:1025A0002C400390029123D03B00019200960DAA8B
:1025B0000CA90BA8FDF70EFF037807002D2B00D008
:1025C0008EE004AAD3750D9B1B9A013B01370D9336
:1025D000012A00DD97E00026340035E00A000E32C3
:1025E000B7E7102EC6D130221A700A001732B0E7B2
:1025F0000AAB019300963B000DAA0CA90BA8FDF7AE
:10260000E9FE1B9B07002600012B1DDD0D9B1B9C7B
:102610009C4200DA1C001A9BA3425EDD01261C1BB3
:102620002E4001D02600002401239D432F33079321
:10263000002C09D0103B0093002301941A00354967
:102640000598FFF7EFFE04006B0621D5172104ABB8
:10265000C9180B78002B0AD00023012200930192A5
:102660000598FFF7DFFE1A9B2418013B1A93069B7F
:10267000002B0DD0012301930023069A00930AA991
:102680000598FFF7CFFE1A9B069A24189B1A1A93F7
:102690001B9B012B01DC1A9B1B931B9B0D9A019327
:1026A000079B3900009305982B00FFF7BBFE241809
:1026B000002E09D020230093002301961A0015490B
:1026C0000598FFF7AFFE24180B980EAB984201D087
:1026D0001CF0FBFC200013B0F0BD00263400A3E783
:1026E0001B9B012B00DC76E70D9B1B9C9C4200DAB8
:1026F0001C00172304AA9B181B78002B00D0013460
:10270000069BE41887E71B9C9C42F8DA1C00F6E75E
:10271000E0600200C2800300F0B50600140000274C
:102720008DB00D002B78002B15D1A94217D30B7853
:10273000002B00D148E14B1C0493202300253022BC
:10274000082104200893049B1B78002B11D10693C9
:10275000013B07935FE0252BE7D00135E2E76B1AD9
:1027600004931A00306873689847049B2900FF1887
:10277000DDE72D2B05D12C3B1D43049B0133049336
:10278000E1E72B2B01D1293BF6E7202B01D10543B3
:10279000F3E7212B01D10D43EFE7302B2CD1103380
:1027A0001D430892E9E7069A4A43D318303B069343
:1027B000049B01330493049B1B781A00303A092AC6
:1027C000F1D92E2B47D1049B5B782A2B18D0049B80
:1027D0000A210133049300230793049B1B781A00FA
:1027E000303A092A17D8079A4A43D318303B07933F
:1027F000049B01330493F0E700230A210693DAE7F0
:10280000049B02330493236804340793DB43079A41
:10281000DB171A400792049B1B786C3B5A425341CA
:10282000049AD31804931B780593002B00D1CBE0B6
:10283000642B00D1A1E022D8502B29D00ED8453BE3
:10284000022B00D8A9E001220499306873689847E8
:102850000137099452E001235B427AE7059B622B22
:102860003CD057D8582BEED1231D0993069B0195D8
:102870000393089B029341230093313B7BE0059B2C
:10288000712B53D00FD8672B00D886E0702BDAD18C
:10289000231D0993069B01950393089B02936123D3
:1028A0000093513B67E0059B752B5AD0782BEFD0F6
:1028B000732BC8D1231D24680993002C49D0079B92
:1028C000013303D1200023F032FB0790069B079AC7
:1028D0000193089B210000932B000BE0231D09931B
:1028E0002368002B0ED0069B04220193089B3849D5
:1028F00000932B003000FFF795FD3F180499099CC9
:1029000001310EE7069B05220193089B3149009394
:102910002B00EFE7231D099323680BA90B70069B7F
:1029200001220193089B00932B00E3E7231D0BA9D1
:10293000206809931CF06BFE079B0100013301D155
:102940000B9B0793069B079A0193089B00932B0010
:10295000D0E7069B06220193089B1F4900932B009A
:10296000C8E7231D0993069B01950393089B0293D7
:1029700061230093573B00220AE0231D0993069B25
:1029800001220393089B0195029361230093573B17
:10299000216830001CF038FDAFE7072307349C4363
:1029A0002300206861680833099318F0A5F8079B95
:1029B000011C0293069B059A0193089B300000932B
:1029C0002B001CF08EFD98E738000DB0F0BDC0461E
:1029D00096F502009BF50200A1F50200F7B506008E
:1029E000194D0C0028001BF0D7FB310017481BF0D5
:1029F00059FB17481BF0D0FB16481BF0CDFBFF23FB
:102A00009B00E61821787F2901D0A64206D1280034
:102A10001BF0C2FB10481BF0BFFBF7BD6278A37828
:102A200050290CD80D48475C0D48405C019300923A
:102A30003B0002000B481BF035FB0434E2E70A4878
:102A40001BF030FBF9E7C0467DF60200AAF6020053
:102A5000B2F602003BF6020059F60200D02803004D
:102A60007F280300D3F60200F6F60200F0B51D0041
:102A700087B006001A4817000C001BF08DFB2900D8
:102A800018481BF00FFB18481BF086FB17481BF07B
:102A900083FBAD006519AC4204D111481BF07CFBEF
:102AA00007B0F0BD3878A27804902068237800033E
:102AB000400E0390E0789B06000902902088317850
:102AC000C004400E0190E0789B0E0007000F0090BC
:102AD000120907481BF0E6FA043401360137DAE739
:102AE0007DF60200CAF50200F7F5020029F60200A1
:102AF0005BF6020070B504000D0010491CF075FC77
:102B0000696801222000FFF739F80D4E20003100DE
:102B10001CF06BFCA96801222000FFF72FF83100A0
:102B200020001CF062FCE96801222000FFF726F873
:102B3000044920001CF059FC70BDC04617F7020084
:102B400020F30200A3F4020070B5060010200D006F
:102B500014001CF08BFA034B466085600360C46070
:102B600070BDC04688660200054B10B59A6C002AFD
:102B700004D00022986C9A64FEF75AF910BDC04642
:102B8000282E0020074B5B69002B01D1180006E0BE
:102B90005A68824204D8801A04308000C0587047B6
:102BA0001B68F1E7282E002070B5144D04006B69F6
:102BB0009868DB68834215D30230C0001CF063FACA
:102BC0006B69002803D19868400003F0E9FF5A6858
:102BD000D96803609B6852185B00836000234260E1
:102BE000C36068616A69D3685068591C04339B00EC
:102BF0000138D16040189C5070BDC046282E00207E
:102C0000074B4118884204D3D8B2002800D10130C4
:102C100070475A01D318027801305340F2E7C0469A
:102C200005150000034B044A5A6100229C331A60C8
:102C30007047C046282E002034D30200F0B585B07E
:102C400001900E00FFF7DCFF144B02905C69002C32
:102C500001D120001EE0270010373D00E3689B00F3
:102C6000FB180393039B9D4201D32468EFE7286878
:102C7000029A037893420FD14378B3420CD10230C9
:102C80003200019923F0D4F8002805D1ED1B6068CB
:102C9000AD10281805B0F0BD0435E3E7282E00205C
:102CA000F0B585B003900191FFF7C8FF002861D10E
:102CB000314D019B2F009C37DC1C3B68002B18D04A
:102CC0002E002E4AA036126831680292A2188A425B
:102CD0000FD90200611818001CF0F3F902900028C7
:102CE00022D1264B0200196838681CF0EAF9029BD1
:102CF0003B602B009C331B68002B20D12600802CCE
:102D000000D2802630002F001CF0BDF99C373860BF
:102D100000280DD120001CF0B6F9260038600028EC
:102D200006D1200003F03CFF33681B193360E0E755
:102D30002B00A0331E602B000022A4331A602B004E
:102D4000A4331A689C352D68A41801990398AD180E
:102D50001C60FFF755FF019B28701A006B70A81CC0
:102D6000039923F074F80022019B2800EB189A7055
:102D7000FFF71AFF05B0F0BD282E0020CC2E002052
:102D8000F7B51D0016000023070003600B603360D9
:102D90002B60174B00915C69002C02D0154B9C42B4
:102DA00004D133682A68D3182B60F7BD3B68013320
:102DB0003B60E268009B94461B68009A0193634461
:102DC00013602200E36810329B00D3189A4207D3A5
:102DD000200002F0A7FA2B68246818182860DBE7A7
:102DE00002CA30684978033009183160EEE7C046FE
:102DF000282E002034D302000C4B70B55C69002CE7
:102E000002D00B4B9C4200D170BD2600E368103607
:102E10009D007519AE4201D32468F0E704CE054940
:102E2000023205481CF0A2FBF4E7C046282E002021
:102E300034D3020024F70200806602000048704785
:102E400016FCFFFF0048704716FCFFFF0022044BF2
:102E50005A60044A08321A60034A13607047C04639
:102E6000AC01002078720200882B002010B50C0005
:102E7000FEF76CFE006B00280ED0E30702D5036856
:102E8000002B09D0A30702D54368002B04D06307A9
:102E900006D58368002B03D1024903481CF095FF37
:102EA00010BDC046E012030020B00200F0B50F00D4
:102EB0008BB00400012138680392FFF7D7FF0600AA
:102EC000012C22D13B68012118000393FFF7CEFFAC
:102ED00080210700490006A821F0C2FB80240023BE
:102EE000089E6400029305AB2200310003983D6800
:102EF000A847431C28D105980B2800D0ACE0029BC2
:102F0000002B34D159480BB0F0BD7868FEF706FFAE
:102F1000030002900133D5D00125337B029C2B4264
:102F200000D181E00026210006A821F099FB03953D
:102F3000002C6ED0210006A821F0D2FB011E1ED16C
:102F40004B494C481CF041FF002810D0029B1B1835
:102F50000293844202D9241A3618C4E7802106A8B5
:102F6000490021F0AAFB802406006400BBE7029B15
:102F7000414807933B7BDB0775D5404873E000234E
:102F80000093220005AB38681CF058FB059B050038
:102F9000002B0ED006A8210021F006FC05980B2876
:102FA0005AD1079B0293002B33D106A821F07AFB5C
:102FB000A8E7844227D8089B30009C46079C6346BC
:102FC0009B5D039A59B2002912DA19001F250222CB
:102FD000A943C0290CD01900103D0132A943E029B2
:102FE00006D004329343F03B1A00511E8A4104324A
:102FF0009619A64212D8029B3000013B0293A642CA
:10300000DDD31C0094E7211A06A821F0CDFB002D8A
:10301000D1D11A4806A908F09BFE74E7E443029B4D
:10302000A419E418060083E7029906A821F029FBF9
:10303000039B029A0093089905AB38681CF0FEFACE
:10304000059B002B0AD006A821F02CFB059B074806
:103050000B2B00D157E7180003F09EFF337B07903E
:1030600005482B4289D106A9D5E7C046FC7E02005F
:10307000FF1203006CAF0200E88702008C8502009B
:1030800030B50C0087B0012105002068FFF7EEFE87
:10309000022203A96068FEF7FBFF049A022D06D9FD
:1030A000A068FEF73BFE049A824200D9020000238A
:1030B00003990093206802AB1CF0C0FA029B002B1E
:1030C00005D005480B2B05D0180003F065FF430021
:1030D0000120184307B030BDFC7E0200F0B589B076
:1030E0000191019B040001211868FFF7BFFE070052
:1030F000012C18D9019B5B685C10631C13D0210064
:1031000004A821F0ADFA631C03D0631E002C2FD05D
:103110001C00012104A821F0E3FA061E0AD11B4974
:103120001B481CF052FE0124102104A821F098FA3B
:103130006442E8E70100019803AB012200683D68A2
:10314000A847431C0ED103980B2809D1059B019376
:10315000012B09D104A821F0A5FA0E4809B0F0BD51
:1031600003F01AFF00280CD1012104A821F01CFB58
:103170003B7B0948DB0700D4084804A908F0E8FDB8
:10318000ECE733780A2BBED1F2E7C046FF1203000A
:103190006CAF0200FC7E02008C850200E887020012
:1031A000F0B51F0004000D00160085B00221FFF7E6
:1031B0005DFE03AB00973200290020001CF03EFAB0
:1031C000039B002B05D005480B2B05D0180003F0FE
:1031D000E3FE43000120184305B0F0BDFC7E020071
:1031E00010B5FEF7FFFD044916F0E8F815F09AFC5B
:1031F0001BF094FD014810BD00007A44FC7E0200E3
:1032000010B5FEF78BFD002801DD1BF087FD01489E
:1032100010BDC046FC7E020010B504000800FEF799
:103220007DFD64102018034C400020400124204301
:1032300010BDC046FEFFFF7F10B5FEF76FFD0028F2
:1032400001DD1BF067FD014810BDC046FC7E020099
:1032500010B51BF07BFD034B4000184001231843C1
:1032600010BDC046FEFFFF7F10B51BF06BFD034B8A
:10327000400018400123184310BDC046FEFFFF7FE9
:1032800010B50C001FF019FB631E184207D0020096
:1032900023000349034810F0BDFCFDF7C9FD10BD34
:1032A0000D13030000B2020010B54A680249D200B3
:1032B0001CF05CF910BDC0463513030070B50B005F
:1032C00006001400101E0FD071681800042A0ED1D9
:1032D000FFF7D6FF7368012B03D0022B05D00068DF
:1032E00000E000781FF0ACFA70BD0088FAE7FFF745
:1032F000C7FF05002000FEF73DFD7268030005488A
:10330000012A03D0022A03D02B60EDE72B70EBE7F4
:103310002B80E9E7FC7E02000F2310B5194001293C
:1033200008D00300002909D0022909D11FF088FA2A
:10333000030003E0044B002800D1044B180010BD2B
:103340001FF099FAF4E7C046C8990200C09902003C
:103350000523020070B5094C094D20684343094814
:103360009B189B0018582B682260C0180F23194027
:1033700009012860FEF7B6FB70BDC046B40100200D
:10338000BC01002048730200A839030000B5080002
:1033900006292ED815F0A4F9040A10161B212800BE
:1033A0009A18E223DB00D218107800BDC4329200D4
:1033B000D05C8006800EF8E7C4329200D05AC00478
:1033C000400EF2E7C4329200D0580003F8E7C4324E
:1033D00092009A1890780009E7E7C43292009A1890
:1033E000D0780007000FE0E7C43292009A18D07836
:1033F000F1E7024B024A00201A60D6E744000020A1
:1034000045130300A83910B504000800062949D85F
:1034100015F066F9040A141F2A343F00E221A218AD
:10342000C9005218137010BD3F210B401800C43260
:103430009200135D8B4303431355F4E77F21C4329D
:10344000920019401948135B890103400B43135341
:10345000E9E77F21C432920019401059144B490307
:1034600003400B431351DEE70F20C4329200A21831
:103470001901937803400B439370D4E70F210B405D
:103480001800C4329200A218D3788B430343D37040
:10349000C9E70F20C4329200A218D1781B01014065
:1034A0000B43F4E7034B044A1A60BCE73FE0FFFF1D
:1034B000FF1FF0FF4400002063130300F0B5D2B2F9
:1034C00085B00E000293072113000B40013BDBB2D5
:1034D000042B02D9294C2A4D25608A431F02002A59
:1034E00024D1284B3578C45C274B2409E443E4B24B
:1034F0002D1BDB19EDB2039308276319039ADBB286
:10350000D35C5A00D2B25BB20192002B33DA1A219B
:103510000320013FFFB2FFF71BFF019B002FF0D1FB
:103520000134E4B2002CE7D135701AE0D4431749D6
:10353000E4B2CE5C0825144B1B19DB5D5A00D2B2F5
:103540005BB20192002B0FDA05210220FFF700FF8A
:10355000013DEDB2019B002DF0D10134E4B2002C0D
:10356000E8D1029805B0F0BD31000120FFF7F0FE70
:10357000002EE9D0ECE706210420CAE74400002031
:103580005013030019070000DB180300361F030067
:103590000022F0B505000F00FF200F248BB008AB10
:1035A000654EDA710100C431890069188B781A09F7
:1035B000B25C234012011343CA788B7013071B0FB0
:1035C000F35CA243234013431A09B25C2340120167
:1035D0001343CB700138E5D2E223DB00EE5CB30885
:1035E000F31ADBB20493554B1B68002B0BD0E2227D
:1035F000C4218120D200890000013B00AA1869186B
:103600002818FFF733FA0024482302940393019407
:10361000009481222B1912019B181B781800059326
:103620000723984320D008A92300059A07312800D2
:10363000FFF744FF0230C4B2023FFFB2002F78D040
:103640002B780393013EF6B2002E47D1E2222B19CC
:10365000D2009B181E78B308F31ADBB20493002340
:10366000029301930093D4E7354B009A9C469A5CF1
:103670002300C4339B00EB18997809090A433149A8
:103680008A5C019907926246DB78525C1907090F40
:103690000A432C491B098A5C2B490692029A8A5CD0
:1036A00006991343079A8A182649C95C0123891889
:1036B000FF2A00DC031CC918882309061B06C91849
:1036C000090F0020FFF744FE039B013BDBB203938D
:1036D000002BB7D10134E4B2013FAEE7049B013BBC
:1036E000DBB20493002B02D1059B002B18D12200E2
:1036F000C4329200535D00999B069B0ECB18DBB23F
:103700000093535B0199DB045B0ECB18DBB2019392
:103710005359029A1B035B0ED318DBB2029378E76E
:1037200008A92300059A07312800FFF7C7FE040007
:103730008CE70BB0F0BDC0465F140300EC2A0020FC
:103740002B1E030037160300DB170300064B1B5C20
:10375000002B05D0054B185C4843C011C0B2704720
:10376000034B185CFBE7C0468717030000160300F5
:10377000C0140300064B1B5C002B05D0054B185CE6
:103780004843C011C0B27047034B185CFBE7C0460A
:10379000871703003B1F030010150300F0B5037AE1
:1037A0008DB004007F2B00D157E1030007000025F6
:1037B0000933FF330837099301953E787F2E00D0F7
:1037C00087E000230693019306998B00E318039387
:1037D0001A7A481C1B7BC0B206907F2B00D11BE1DC
:1037E0009F49CE5C8D5C9F49AE4200D0F1E08D5C7C
:1037F000CB5C0493039B597A019B5918CBB201937C
:10380000049BEB18DBB20793023B1B06DCD4A82712
:10381000019B5D1BEBB20593A82F00D0E1E0039B59
:10382000039A5B7A527B5B085208991802910199BE
:1038300001988A18E221C31AD2B2DBB2C900A218D9
:10384000E31852185B18157818782D1AEDB27F22FC
:103850002B006DB293430893EB17E8185840029978
:1038600015F0C2F82800CBB20299099314F0D6FFE4
:10387000059A00251600C3B20A93029B9B18DBB27F
:103880000B93320039002000FFF77EFD0A9B0136C2
:103890000B9AC018F6B2C3B2964200D1B6E0099AAC
:1038A000AD18029AEDB2AA420DD8AD1A20216A468F
:1038B00052181278EDB252B2002A00DAA4E0002BBE
:1038C00001D00133DBB2320039002000FFF79AFD4E
:1038D000D7E7012E77D12B003100019A20001BF091
:1038E00026FFBA78604BA1789B185B783000019373
:1038F000FB780893FFF72AFF3F23E178034030006D
:103900000293FFF737FF7F22584B9B5D1A40584BBD
:1039100003929A5D0F231A400492564A925D1A4010
:103920000592554A925D1A4006923F22534B9B5D89
:1039300007937B78EB18DBB20A93029B1340029348
:103940007F23184083019C462A003F21C432920005
:10395000135D0F268B4302990B431355135B4849A4
:103960000B4061460B431353039B10595903454BBE
:1039700003400B430498190C3140000113510843D4
:10398000A21890701B0E0598B343069903430901D2
:103990001E400E43D67081226319079912019A18AE
:1039A0001170E222D2009B180899019A0135521831
:1039B0001A700A9BEDB29D42C6D1099B0437BB42E7
:1039C00000D0FAE6FDE6022E8BD12B00019AFF21F2
:1039D00084E72D48AE4201D9C55C09E78D5C835C64
:1039E00007E7049B019A39009A18D2B22000FFF72A
:1039F000CBFC059A050039002000FFF7C5FC079BAA
:103A00002D1AEDB2029322E7013B5BE70137FFB2CB
:103A1000AF2F00D000E7D7E6023189006118019B83
:103A2000497859186368C9B2002B13D1E223812267
:103A30001648DB001201E318A518001B1A18C4323F
:103A40009200125D1E789206D20EB21A1A700133DD
:103A50009D42F3D12000FFF79BFD0DB0F0BDC046A5
:103A600070140300371703002B1F030060150300B9
:103A70006F130300BF1303000F140300DB1D0300CB
:103A80003FE0FFFFFF1FF0FFB0150300F0F8FFFF5E
:103A90000023F0B5334E93B0050006A80191140041
:103AA00033600127FDF79EF92740011E3CD1082312
:103AB00023401DD0020028001EF091FD04000320C9
:103AC00007F032FD20001CF035F90120404207F0DC
:103AD0002BFD0124FDF7A4F9002F3AD02100224844
:103AE000FDF734FA3C0001211F48FDF72FFA30E0C2
:103AF000E20613D56A68A96811201EF046FD05008C
:103B00002E68019A290003A803F054FB6307DB0F1A
:103B10000022310003A806F06BF8CFE7A306EFD52B
:103B2000280020F0C0FFEAE70120404207F0FCFC3B
:103B3000002F03D001210C48FDF708FA0798FEF783
:103B400005F80A49FDF73EFE041E05D03468002F33
:103B5000C9D1200013B0F0BD07990548FEF732F82F
:103B6000F5E7C046B8010020DF8003004CB1020039
:103B70008066020010B586B0202102A8802420F0C3
:103B80006FFD64001E481BF0BCF800231D48039322
:103B90001BF0B7F8FDF7C2F90128F3D002280BD1CA
:103BA00019481BF0AEF802A820F07CFD012200208D
:103BB000164B1A7006B010BD032802D100230393E0
:103BC000E8E7042804D0C1B202A820F0A9FDE1E78B
:103BD0000F481BF096F8039B0193002B08D10A486D
:103BE0001BF08FF802A820F05DFD80204000E1E787
:103BF0001122012102A8FFF74BFF2042C5D0D9E7CF
:103C00002A20030067F30200AFF60200CC00002078
:103C10004520030030B587B0202102A8802520F080
:103C20001FFD6D0037481BF06CF837481BF069F832
:103C30000024364902A803941EF058FB01280AD13B
:103C400033481BF05EF802A820F02CFD2000314B19
:103C50001C7007B030BD022803D12D481BF051F86D
:103C6000E0E7032801D12A48E0E7042808D12848E2
:103C70001BF047F802A820F015FD80204000E8E77F
:103C8000052827D124481BF03CF80394FDF746F99A
:103C90006B46C1B2DC1D21700329E4D004290AD18E
:103CA0001B481BF02EF80121162202A8FFF7F0FE98
:103CB0002842BDD0CDE702A820F032FD23780D2B9D
:103CC00003D116481BF01DF8E0E701212000FDF7A5
:103CD0003DF9DBE7039B002BAAD002A820F00EFDE4
:103CE00010F0CEFA00280BD00A2102A820F018FD0F
:103CF0000B4902A81EF0FAFA0328B4D00428ECD12C
:103D00000021D1E7721F0300C31F0300E91F030056
:103D1000AFF60200CC000020EE1F03001E200300BF
:103D20002520030010B5010083880120A0229840BF
:103D3000044BD205D050CA88083120F0FDFE02485D
:103D400010BDC0460C050000FC7E0200EFB5070068
:103D500008001500F988020000233868FEF7B6F85D
:103D600003267043002D14D03F18042D14D10123D5
:103D70007A7A01A952001A4301923A7A30009A40A5
:103D80001A430292BA7A9A4013430393FEF7F4F966
:103D90000500280004B0E0BD310001AA2800FEF7AC
:103DA00081F8019B1868FDF7B9FF019B0600586870
:103DB000FDF7B4FF019B05009868FDF7AFFFFF2EEC
:103DC00003D8FF2D01D8FF2802D9044802F0FEFED7
:103DD0003D727E72B872024DDBE7C046612003007F
:103DE000FC7E0200F7B51C0000230093023308009C
:103DF00011001A0011F0C0FE20681EF0C1F847B291
:103E00006068FDF78BFF041E02DC104802F0DEFE46
:103E100003263000604308301BF028F90C4BA2B297
:103E20000500878072430360C4800021083022F0BF
:103E30002AF83B00A022C133FF33D2059B009E50DD
:103E40000123BB40034928005350FEBD4820030016
:103E5000407402000C050000032210B50400C38862
:103E600000215A43083022F00EF82000FFF75AFFD5
:103E7000004810BDFC7E0200F0B50D00002785B0A3
:103E8000110003901E002800104B0222009711F031
:103E900073FEAB1C9B00180002931BF0E7F80400B4
:103EA000039B013D036045603368029D8360083DCC
:103EB0000437BD4202D1200005B0F0BD0021F05909
:103EC00002F054FAE3199860F2E7C046FFFF0000E1
:103ED00010B50400002906D0044B8A6B0360096802
:103EE00000230FF003FF2000FCF7A2FF10B1020037
:103EF000F0B5040087B0039202936618002A06D03A
:103F0000023A222A03D9354802F060FE0134B44255
:103F100029D220780EF07CFF071EF7D123782B2BB7
:103F20001CD10134311B200003AA1CF034F92318E2
:103F30001C0000250193B44217D3002F00D06D421E
:103F400001236D001D43019B9C422FD12449039AFC
:103F500024480FF05FFE0299FFF7BAFF2D2BE1D145
:103F600001340127DEE70027DCE723781A00303A26
:103F70000092092A07D9202213431A00613A192A0C
:103F8000DBD8573B00930399009B9942D5D9280071
:103F900007F096FA002816D1039B5D43009BED18AD
:103FA0006B006B400FD40134C5E70134B44205D235
:103FB00020780EF02DFF0028F7D1C7E7B442C5D115
:103FC000280007B0F0BD019B3A000593F11A05A83F
:103FD000039B1EF05BFC059C0500B4E7A7200300D3
:103FE000CA20030000B20200F0B504008BB00893B1
:103FF000431804920193019B9C4200D3F6E0207881
:104000000EF006FF071E38D123782B2B37D1013451
:104010000590019B9C4200D3EAE0202322781A43BA
:10402000692A33D10199A21C914200D8E6E0627856
:104030001A436E2A00D0E1E0A2781A43662A00D023
:10404000DCE0E21DE51C914214D9E2781A43692AAA
:1040500010D122791A436E2A0CD162791A43692A47
:1040600008D1A2791A43742A04D1E2791343792B37
:1040700000D10535FF26F6051BE00134BBE70590AE
:104080002D2BCAD12C3B01340593C2E76E2A2ED1C9
:104090000199A21C914200D8B0E062781A43612ACB
:1040A00000D0ABE0A27813436E2B00D0A6E05D4EAB
:1040B000E51C059B002B02D080231B06F618A542A9
:1040C0007BD159498CE03D002B786F1C18003038AB
:1040D000092834D8022E15D10A23029A53431B18FB
:1040E0000293019BBB42EED8002304934DE00022D3
:1040F000079202924D4A2500069200220026039262
:104100000993E1E715F0D0FC051C012E0DD10699AD
:1041100015F054F9011C039814F0DEFD4349039097
:10412000069815F04BF90690DBE74149039815F026
:1041300045F9291C14F0D0FD00260390D1E7002E8C
:1041400003D12E2B03D10126CBE7022E16D0099ADC
:104150001A43652A12D1019BBB4256D96B782B2B8F
:1041600005D1AF1C019B9F42ABD00226B9E70226C6
:104170002D2BA8D12C3BAF190793F3E7049A002A03
:1041800004D0202213436A2B13D13D00079B002B40
:1041900002D0029B5B420293029815F03BFC011C8B
:1041A000234817F0D9FA039915F008F9049F061C63
:1041B0007FE700230493E9E70135019B9D4205D287
:1041C00028780EF025FE0028F6D17AE7019B9D4263
:1041D00000D076E7089B002B01D1002F1AD015499B
:1041E00015481FF04CFB1099FFF772FE0023059352
:1041F00000230393002325000493CCE7059B002BA9
:1042000000D15EE72500002656E7019BBB4200D1A6
:1042100057E769E7032302209E43084B3043C01849
:104220000BB0F0BD0000C07F8D200300CDCCCC3D95
:10423000000020417020030000B2020000008080D6
:10424000F0B587B00092027804000F00930703D501
:10425000009B002B00D0F5E0D307DB0F0ED07A4B8C
:104260003B40062B43D003233B4003D177493868BA
:10427000884203D0009B012B00D0E3E00193530759
:104280005FD52368A568DE08F600AE19B54230D3C5
:10429000009B012B00D0D5E02368D90863689942C0
:1042A00010D104316160A068C9001AF0FDFE2368D6
:1042B0006268DB08D21ADB00A060D200C0180021BF
:1042C00021F0E1FD07212368DD086A1CD2000B40C4
:1042D00013432360A368ED005D195B4B2F601F4003
:1042E000062F21D001222378934323701CE0012361
:1042F000C4E72868B8421AD1009B022B14D12900C8
:104300002368721BD210083B013A6F6828002360B3
:10431000D200083121F0A4FD2368DD08A368ED0078
:104320005D1900236F602B60280007B0F0BD019B72
:10433000002B04D13900FDF79FFC0028DCD10835A3
:10434000A4E76368002B05D1009B012B7AD12000E4
:1043500000F07EF83C4B3B400593062B27D1F80834
:104360001BF046F903906168039814F053FA002695
:104370000491049B0293029BDD00A3685D192868E9
:1043800000281BD1009B012B5CD107212368DA0890
:104390000132D2000B4013432360002E00D03500C1
:1043A00000236B60059B2F60062B9BD1BCE7390077
:1043B000022001F073FE43100393D4E7042803D1D5
:1043C000002E1DD12E001BE0B84211D1009B022B04
:1043D000AAD123680298083B23600130616814F079
:1043E00019FAA368C900CB58002B25D12B609BE795
:1043F000019B002B04D13900FDF73EFC0028E5D1DC
:1044000002986168013014F005FA049B02918B4216
:10441000B1D1009B012B15D1002E0FD023683500A0
:104420000833236000237360059B3760062B00D19F
:104430007AE72378009A57E70423D7E7200000F0B3
:1044400007F890E700256FE7070080FF8C850200E2
:10445000F7B54368040001935A1C0023174958001C
:10446000455AAA4206D90133222BF8D15508AD1876
:10447000213B1D43E800A7681AF00AFE07232268C3
:104480006560134001220025236013432370A06060
:10449000019B9D4203D138001AF017FEF7BDEE00D4
:1044A000B959002908D0042906D001222000FFF7BD
:1044B000C7FEBE19736843600135E9E7C2EB02002D
:1044C000F8B505000023046886681449621C58008A
:1044D000405A824206D90133222BF8D15008821863
:1044E00001201043002328606B6080001AF0D0FD8B
:1044F0003700A400A860A419A74203D130001AF025
:10450000E4FDF8BD3968002905D0042903D0012253
:1045100028001BF018FA0437EEE7C046C2EB020091
:10452000F7B5019111490400170000251AF05DFF4D
:104530007B68AB4204D80E4920001AF056FFF7BD45
:10454000002D03D00B4920001AF04FFF019BAE0055
:104550009A5909492000BE191BF008F80122B168D8
:104560002000FDF70BFB0135E2E7C046CD800300DC
:10457000A3F4020020F30200F2200300F0B50500CE
:104580008BB008680C0008F05BF8049004A81BF0DE
:104590009EFA00260127049B03900693069B197838
:1045A00000291AD13000FDF7E7FD0122070007A915
:1045B0006068FDF76DFD079B089A05939B180193B2
:1045C000022D1FD9A068FDF7A9FB002817DA089B68
:1045D000C01814D5284802F0F9FA08000EF030FC93
:1045E000002806D006A81BF084FA069B1B78732BC4
:1045F00000D13800069B361801330693CEE7059BA1
:10460000181805900025B54202D338000BB0F0BD54
:10461000049B012418780EF013FC002803D004A892
:104620001BF067FA04000598019A03199A42D1D346
:10463000049B1B78732B10D02D19AB000293049BA5
:10464000013C14D3197805AA03980AF0D5F8029A08
:10465000A300D31AFB185860F1E7210007F0C6FB4E
:10466000059B1C19AB1C9B0005940135D851049B7C
:1046700001330493C7E7C046F6200300F0B589B0C4
:10468000039101921E0007F0DBFF049004A81BF0C9
:104690001EFA00250290B54201D309B0F0BD049B7B
:1046A00018780028F9D00EF0CBFB0124002803D0A5
:1046B00004A81BF01EFA0400039B019A1B199A42DE
:1046C00002D21B4802F082FA049B1B78732B10D095
:1046D0002D190E9BAF00DF19049B002C24D0A200E3
:1046E00052421978BA5803AB02980AF0E5F8013C37
:1046F000F2E70E9B6F1CAD00E858012205A9FDF7FB
:10470000C7FC069DA54200D925002A0005990398FB
:1047100021F09DFB039B621B58193D00002121F0F5
:10472000B2FB039B1C190394049B01330493B2E76F
:10473000F6200300F0B50E0089B0039001CE0F0003
:104740001BF0EDF94410210004A81FF09AFF069D0C
:1047500022000021280021F096FB039B0096013BDC
:104760002A1929003868FFF789FF04A9024807F0D1
:10477000EFFA09B0F0BDC046E887020030B50C0082
:1047800089B005000222606805A9FDF781FCA068D8
:10479000FDF7C4FA002806DA069B0393C01802D579
:1047A000084802F013FA0599069AEB1E8A180918B0
:1047B00020000C3000902068FFF760FF024809B02D
:1047C00030BDC046F6200300FC7E020000238207B5
:1047D00008D10068044A0133904203D0034BC01A49
:1047E00043424341180070474476020008760200B5
:1047F000044B88600B60044B08004B600023CB60C7
:104800007047C0464899020043FC010030B585B0AE
:1048100005000800694601F0A9FD0400200001F030
:1048200007FE011E02D1064805B030BD2B1D002237
:1048300018001BF088F80028F0D00248F4E7C046C2
:10484000C8990200C099020070B5050010201AF046
:104850000DFC0400074B696808C01BF06AF8AB68E0
:10486000E968A3606B68E0689A0021F0F0FA200024
:1048700070BDC04644760200F7B504000D00002666
:104880008B0704D10B68214E9E1B73425E41AB68BF
:10489000002B0AD1002E03D01D4920001AF0A5FDDF
:1048A0001C4920001AF0A1FDF7BD002E03D01A49C3
:1048B00020001AF09AFD194920001AF096FD0027F1
:1048C00001236A68BA4207D8154920001AF08DFD05
:1048D000002EE9D01349E4E7BA000192EA68B90072
:1048E0005258002A0FD0042A0DD0002B03D10E49B4
:1048F00020001AF07AFDEB68B90059580122200017
:10490000FDF73CF900230137DBE7C04608760200DB
:104910003F210300462103004C21030057210300DF
:10492000D14C0300A3F4020020F3020010B583076A
:1049300007D1044B02689A4203D1034903481BF094
:1049400044FA10BD0876020007210300D8AC02002B
:1049500070B50D000400FFF7E9FF2900201D0122BA
:104960001AF0F1FF004870BDFC7E020070B50D002A
:104970000400FFF7DBFF2900201D02221AF0E3FFED
:10498000004870BDFC7E020070B5060008680D008E
:104990000124FFF7CBFFB44201D3044870BDA3004C
:1049A000E95828681BF0EBF80134F4E7FC7E0200BC
:1049B00070B50D000400FFF7B9FF2800002101F0D9
:1049C000D5FC0500280001F033FD011E01D104488B
:1049D00070BD231D032218001AF0B5FFF2E7C04690
:1049E000FC7E020010B50400FFF7A0FF201D1BF0A5
:1049F00038F8014810BDC046FC7E020010B5012207
:104A00001BF0EEF8004810BDFC7E020070B50400FB
:104A10000D00FFF78BFF201D022229001AF093FFE3
:104A2000002804D103481EF01DFFFCF701FA0248DC
:104A300070BDC046B8AE0200FC7E020010B5040096
:104A4000FFF774FF201D1AF0EDFF002803D1024983
:104A500002481BF0BAF910BD29210300B8AE0200CC
:104A6000F8B50D0001280BD0002803D002280BD088
:104A7000002004E08B681448002B00D11348F8BDD7
:104A80008B685B001843FAE7032400200C40844243
:104A9000F5D10F4B0E6820009E42F0D14F68A7421F
:104AA00003D1012076003043E9E7EA68A300995872
:104AB000002906D0042904D0022001F0EFFA4010AA
:104AC00036180134EBE7C046C8990200C0990200CD
:104AD00008760200F8B5040010200D001AF0C6FA9E
:104AE0000600094B210008C6070030001AF021FF1C
:104AF000A4002C19A54201D13800F8BD012202CD35
:104B000030001AF020FFF5E744760200F7B5040004
:104B10000E00171E2CD0FFF709FF194DB4422DD0FF
:104B200000210800FFF7D6FF00210500300001F04A
:104B30001DFC0190019801F07BFC061E0CD1002F9A
:104B40001CD0E0681AF0C1FA6B686360AB68A360C0
:104B5000EB680B4DE36011E0201D002231001AF0DC
:104B6000F2FE0028E6D031002800FFF7F1FEE1E771
:104B70008842D5D120001BF015F805002800FEBDA5
:104B8000FC7E0200F0B589B004000390029101920E
:104B90000027FFF71BFEB84207D13A0003AB012103
:104BA00022481BF073F804000137029D00262800FC
:104BB000FFF70CFEB04207D1320002AB01211B48C7
:104BC0001BF064F805000136019B002B05D0002383
:104BD000AA680193A36893420DD0154B06940493E1
:104BE000144B05930023079304A81BF02AF8011E19
:104BF00012D101230193002F02D02000FFF7F2FE13
:104C0000002E02D02800FFF7EDFE019B0A48002B82
:104C100000D10A4809B0F0BD2B1D002218001AF07F
:104C200092FE0028E0D10190E5E7C04644760200FC
:104C30004899020043FC0100C8990200C099020093
:104C400073B50C0015000091019200268B0704D16A
:104C50000B68394E9E1B73425E4132001F2868D894
:104C600013F03EFD2810176767671C676767676763
:104C700067212D346767673B676767676740464A08
:104C80005358675D290020001AF09DFF04002000A2
:104C900076BD290020001AF0EEFFF7E769460220F2
:104CA0001AF0CAFFF2E7002E04D069460220FFF78F
:104CB0006BFEECE7290020001AF07BFFE6E72900F5
:104CC0002000002EE0D0FFF773FEE0E7290020006F
:104CD000FFF71CFF002EDAD1D8E7694602201AF050
:104CE0007FFFD3E7012229002000FFF74BFFCDE72C
:104CF000012221002800F8E72800FFF767FD0028BF
:104D000015D0A368AA68934211D1290020001AF097
:104D1000EEFFBBE7290020001AF0E1FFB6E7201DF7
:104D2000002229001AF00FFE044C0028AFD1044CD9
:104D3000ADE70024ABE7C04644760200C899020004
:104D4000C0990200A3230021024A5B000248D1520D
:104D50007047C046282E0020FC7E0200A3230121BC
:104D6000024A5B000248D1527047C046282E0020FC
:104D7000FC7E0200A323044A5B00D35A0348002BA5
:104D800000D103487047C046282E0020C899020071
:104D9000C099020010B508F061FB014810BDC04683
:104DA000FC7E020010B50C4C002808D1FC34236DA9
:104DB00018005A1C02D018011DF042FD10BD0868F1
:104DC000FCF7ACFFFC34031E044803DA01235B420A
:104DD0002365F3E71B09FBE7282E0020FC7E020079
:104DE000F7B52D4FB43701972B4A2C49FC32536C41
:104DF0008B4200D8F7BD0325043B53641A68264B49
:104E0000501CAC331E6804008108715C2C406400A7
:104E10002141831A294001300229F4D00326019947
:104E2000120109681B018A181B499B08002BDBD063
:104E30000F201468044229D119480068A04225D8DF
:104E40000D00B8352D68A54220D9241A20090090FC
:104E50000800AC300068A409009D04192078354092
:104E60006D0084462841304001280FD13700AF4003
:104E70003D0067463D4325700D00FC356C6C094FC5
:104E8000BC4206D2201D686400982060013B0432B9
:104E9000CCE70C00BC34F8E7282E0020E82E0020D8
:104EA000DC2E0020682F00200F23994370B50600E8
:104EB0000D00081A412113F027FC0F4C02002300BB
:104EC000B033186023002100AC331E608301EB1A5D
:104ED000B4310B6023003000B83300211D6020F096
:104EE000D2FF8023FC345B020122A36400235242E0
:104EF000E3642265636570BD282E0020A222034969
:104F000052008B5A01338B527047C046282E002026
:104F1000A222034952008B5A013B8B527047C04674
:104F2000282E0020A223034A5B00D05A431E98413A
:104F3000C0B27047282E0020F7B504000325890071
:104F400043180193019B9C4200D1F7BD0F232168B8
:104F5000194229D1184B1A00B43212688A4223D858
:104F60001800B830006888421ED9891A1A000F0943
:104F70003800AC321268890951180A78284040007C
:104F8000944602412A40012A0ED12E00864030006C
:104F90006646304308701800FC30416C074EB14241
:104FA00006D20B1D43640F60FFF71AFF0434C9E7F4
:104FB000BC331A60F8E7C046282E0020682F002076
:104FC000A22210B508485200835A010001338352CF
:104FD00003000022FC33BC310A60DA64034A272153
:104FE0005A64FFF7A9FF10BD282E0020E82E0020EC
:104FF000F8B503262E4C00252200BC321368AB42C4
:1050000013D102221900032794462200B0321268FD
:10501000920091422AD323000022FC335A65453284
:10502000FF32A35A013BA352F8BD23001560214A69
:10503000FC335A642300B0331B689B009D42D9D2D5
:105040002200AC321268AB08D35C2A003240520016
:1050500013413340032B07D12200FC32536C191D3E
:1050600051641D60FFF7BCFE0135E3E72000AC3062
:1050700000688A08801802780D0016003D406D0017
:105080002E413E40022E09D0032E0BD0012E07D117
:105090003B00AB409A430270012301E0002BF7D1A3
:1050A0000131B2E76346AB409A4302700023F7E751
:1050B000282E0020E82E0020334BF0B51A001900EE
:1050C000B832B43109681268521A1900B0331E6838
:1050D000026003230022AC310F68140011009C46CB
:1050E00042608260C260026142618261B6006546D0
:1050F0008B08FB5C0D406D002B4165462B404568DD
:10510000012B33D0002B2BD0022B32D001318E4219
:105110000AD065468B08FB5C0D406D002B4165464F
:105120002B4001D0012BE2D1012C26D1056901359C
:1051300005618569A54200D284618E4201D0012BB0
:10514000D5D1C368934200D2C2608E4206D1436873
:105150001B01436083681B018360F0BD0022C6E72A
:1051600084680132013484601C00CFE7013545605A
:10517000FAE7013545600134C8E7022CD9D1456909
:1051800001354561D5E7C046282E0020F7B50F3020
:105190000309019302D100242000FEBDA223474A47
:1051A0005B00D35A002BF6D14733FF33D35A5E420C
:1051B0005E41002B07D0414BFC33DA6C1B6D9A42E9
:1051C00001D308F04BF9002430213F273B4A3B4BE9
:1051D000B0321268FC339446384A5B6DAC321068CA
:1051E0009C4505D8002ED6D108F038F90136EBE7FA
:1051F0000325C25C2A4231D1019D0134A5422ED83B
:105200009B00191B4E1C5A1C012C03D12B4C9708D8
:10521000FC346765B40800190324270037407F0079
:10522000A446023CBC40077802313C43234F047043
:10523000AC378B4234D22149204DB431FC350C6857
:10524000E96C33018C46E418019B921B6344120104
:1052500000212000EB6420F016FE9DE700240C25C1
:105260002A4206D1019D0134A54203D89B00013397
:10527000C7E700240A4206D1019D0134A54203D8A4
:105280009B000233BDE70024BA4306D1019A0134E2
:10529000A24203D89B000333B3E7002401339FE706
:1052A0003C6888082018644602250C406400A5402C
:1052B0002C00057801312C430470BAE7282E002019
:1052C000A22230B5164B52009A5A002A26D1002845
:1052D00024D01A00B4321268801A1A00FC32546DBD
:1052E00001098009A04200D25065AC3318000322A6
:1052F00004688B08E3180C00150014406400A540F6
:105300001C780131AC431C7004688B08E35C0C0012
:105310001440640023411340022BE9D030BDC04645
:10532000282E00200F2203000240002070B5824288
:1053300028D1154C10002100B4310968994221D8B8
:105340002000B830056810009D421BD9AC345B1AB0
:10535000246819099B09E55C0800032318404000F4
:10536000054110001D40012D0CD14D1C2E00AA0836
:10537000A25C1E4076003241681A1A400135022AAA
:10538000F4D0000170BDC046282E0020F0B585B0D5
:1053900007000D000292002807D101002800FFF746
:1053A000F5FE0600300005B0F0BD002903D1FFF77F
:1053B00087FF2E00F6E70F2100260140B142F1D110
:1053C00053480E000300B4331B68BB42EAD8020006
:1053D000B8321268BA42E5D9FB1A1A0900920200E3
:1053E000AC3212689B090192D25C0323009C2340DB
:1053F0005B001A4103231A40012AD3D14233FF3301
:10540000C35A002BCED129000F310909B0308C4688
:105410000168032689000391210014000131039AD9
:10542000914212D201988A08825C08003040400004
:1054300002413240022A02D101340131EFE7002A51
:1054400003D10133E2186245F7D3644501D13E0030
:10545000A8E7644521D9009B032663441900009BFB
:105460000800E218AC239C46294B9C446346050087
:105470001B6884081C19330035406D00AB4025784B
:1054800001309D4325709042F0D1214B8908FC33B7
:105490005A6D9142DBD25965D9E71B19634523D375
:1054A000032502261A49009BAC31E3180191009AAA
:1054B00062449A4209D86346191B090120010A0077
:1054C0003818002120F0DFFCC1E7019918000968B5
:1054D0009A088A183100284040008140080011785D
:1054E000013308431070E2E7029E002E00D159E715
:1054F00000212800FFF74AFE061E00D152E72201D4
:10550000390020F0A4FC3800FFF7DAFE4AE7C04675
:10551000282E002010B58CB005A8FFF7CDFD079B05
:105520000A4C03930093059A069B094920001AF040
:105530001DF8089B099A01930B9B0649039300935E
:1055400020000A9B1AF012F80CB010BD8066020011
:1055500098210300BB210300F8B5434E434F3300AD
:10556000B4331A68424938001AF000F800243300B6
:10557000B0331B689B00A34223D93F2214422CD195
:1055800032002500AC3210680321AA08825C294051
:1055900049000A4103210A4202D10135AB42F3D14D
:1055A0002A1B7F2A12D992093249380019F0DEFFEE
:1055B0002C003F239C433300B0331B689B00A34265
:1055C00004D838002C4919F010FFF8BD2B4B2201EC
:1055D0001A402B49380019F0C9FF3200AC3212686A
:1055E000A308D35C0322224052001341032213403C
:1055F0003A32022B31D03032032B2ED03F3A012BDE
:105600002BD13300B4331B682201D3581D495422D7
:105610008B4222D01C49083A8B421ED01B49083AC3
:105620008B421AD01A490F328B4216D019498B423D
:1056300013D01949123A8B420FD018498B420CD023
:10564000174905328B4208D01649043A8B4204D0E0
:10565000154926328B4200D11B3A1449380019F003
:1056600085FF013483E7C046282E002080660200B3
:1056700059210300742103004DF70200F0FF0F00D1
:1056800090210300D465020040840200C49302000C
:105690008C850200E8870200889502004C95020084
:1056A000289E020090DE020014A10200D12F030008
:1056B000F0B585B00C0006F0A3FB03AA070002A911
:1056C0002000FCF7CDFB029E039B35001035AD009A
:1056D0002800019319F0CAFC04002C22103000218C
:1056E00020F0D1FB67602700104BE6632360104B6E
:1056F000019EA3600F4B403DE3600F4B4037636159
:105700000E4B7519A3610E4BE3610E4B23620E4BDA
:1057100063620E4B6363AE4202D1200005B0F0BD60
:1057200001CE06F06DFB01C7F5E7C0469C640200A0
:1057300051570000B15700001D210000B5210000A5
:1057400075570000B5220000A9200000D4650200B2
:1057500070B50C0005000B6805495A6819F006FF82
:105760002168280040312200FEF7DAFE70BDC046F5
:1057700024240300136870B5002B10D10568EE6B6C
:10578000B34200D170BD9C002C19246CA14201D001
:105790000133F5E702339B001B581360F2E702491F
:1057A00002481AF012FBC04600220300D8AC0200E7
:1057B000F0B51700C26B85B0CE19050001910393B7
:1057C000964206D03300254925480EF023FAFBF710
:1057D0002FFB00213000FCF7CFFC0400019B05608B
:1057E0009B001A0003990830029320F030FB0298C6
:1057F000BA0008302018002120F045FB029A039BD4
:1058000094466344F7191E00019BBB4202D320005B
:1058100005B0F0BD306806F0F3FA00210200EB6B32
:105820000293029B994204D10E490D480EF0F2F901
:10583000CDE78B00E818006C824201D00131F0E71F
:10584000E3189968002901D00749EEE77268083625
:105850009A60019B02330193D6E7C04614220300ED
:1058600088B102004D2203006E220300F0B58BB018
:10587000079310AB10CB009001911B78062A12D829
:10588000012A08D93F230B700B0001330193002339
:1058900001990B7001E0002AF9D10120904280416A
:1058A00040420BB0F0BD0099002929DA019B019913
:1058B0005F1C2D230B70802109068C46009B6344DE
:1058C0000093019BFF210993009BC9051800084024
:1058D000884222D120234E21079AF81C1A40130037
:1058E0001143009A540212D149225A403A7046227A
:1058F00053407970BB700023FB70019BC01AD0E746
:10590000019F002BDDD0390001370B70D9E741240E
:10591000634039707B70B970EDE7002C00DA062423
:105920000199013A7D1A551B2022079911430291D2
:10593000672940D1002C00D1CEE1002B79D0A64AB6
:10594000934200D9D4E0A549009813F0C1F8431E52
:1059500098410023002630300393203305900493B0
:105960009F4B039A0099D05813F0A8F8002808D04C
:10597000049B039AF6189B4B0098D15813F01EFD18
:105980000090049B5B100493039B04330393182B38
:10599000E6D115330393009A8F4B93425DD38F4921
:1059A000009813F095F8002851D0002E7CD0FE23EB
:1059B0009B05009351E0002BC1D1029B662B38D18F
:1059C000631CAB4200DBAC1E029B651C04930023EE
:1059D0001E0003930593E343DB171C40049B652BD8
:1059E00000D0EEE0651C00230693069B9D424CDD33
:1059F000009813F0EFFF7B1C0893030030333B70DB
:105A0000059A069B934205D1002C03D0BB1C08933A
:105A10002E237B7013F0FEFF011C009813F000FE94
:105A2000714913F0CBFC069B009001330693089F4D
:105A3000DBE7631DAB4200DBAC1F029B652B00D193
:105A4000AFE000250493039505952E00C3E7009869
:105A5000654913F0B3FC01360090029B662B03D01E
:105A6000672B39D1042E37DC059B3B70029B672BDB
:105A700001D1731EE418631CAB4200DBAC1E002C8A
:105A800015D16623013703940493029B662B00D043
:105A9000B0E0012E00DDDDE05449009813F018F865
:105AA000002800D0ACE0D5E02B2303937FE72E2322
:105AB000250030227B70BB1C013E1F00002E76D0DB
:105AC000002D05D1039501235B42059367334DE01B
:105AD0001A70013D0133EFE76B1FA3426CDC029AA1
